{
  "contractName": "MediChain",
  "abi": [
    {
      "constant": true,
      "inputs": [],
      "name": "name",
      "outputs": [
        {
          "name": "",
          "type": "string"
        }
      ],
      "payable": false,
      "stateMutability": "view",
      "type": "function",
      "signature": "0x06fdde03"
    },
    {
      "constant": true,
      "inputs": [
        {
          "name": "",
          "type": "uint256"
        }
      ],
      "name": "doctorList",
      "outputs": [
        {
          "name": "",
          "type": "address"
        }
      ],
      "payable": false,
      "stateMutability": "view",
      "type": "function",
      "signature": "0x127ca4b4"
    },
    {
      "constant": true,
      "inputs": [
        {
          "name": "",
          "type": "address"
        }
      ],
      "name": "doctorInfo",
      "outputs": [
        {
          "name": "name",
          "type": "string"
        },
        {
          "name": "email",
          "type": "string"
        },
        {
          "name": "exists",
          "type": "bool"
        }
      ],
      "payable": false,
      "stateMutability": "view",
      "type": "function",
      "signature": "0x1bf04073"
    },
    {
      "constant": true,
      "inputs": [
        {
          "name": "",
          "type": "address"
        }
      ],
      "name": "designationInfo",
      "outputs": [
        {
          "name": "",
          "type": "uint256"
        }
      ],
      "payable": false,
      "stateMutability": "view",
      "type": "function",
      "signature": "0x5073d346"
    },
    {
      "constant": true,
      "inputs": [
        {
          "name": "",
          "type": "address"
        }
      ],
      "name": "patientInfo",
      "outputs": [
        {
          "name": "name",
          "type": "string"
        },
        {
          "name": "email",
          "type": "string"
        },
        {
          "name": "age",
          "type": "uint256"
        },
        {
          "name": "record",
          "type": "string"
        },
        {
          "name": "exists",
          "type": "bool"
        }
      ],
      "payable": false,
      "stateMutability": "view",
      "type": "function",
      "signature": "0x6142d2dc"
    },
    {
      "constant": true,
      "inputs": [
        {
          "name": "",
          "type": "uint256"
        }
      ],
      "name": "patientList",
      "outputs": [
        {
          "name": "",
          "type": "address"
        }
      ],
      "payable": false,
      "stateMutability": "view",
      "type": "function",
      "signature": "0xbabb1d41"
    },
    {
      "inputs": [],
      "payable": false,
      "stateMutability": "nonpayable",
      "type": "constructor",
      "signature": "constructor"
    },
    {
      "constant": false,
      "inputs": [
        {
          "name": "_name",
          "type": "string"
        },
        {
          "name": "_age",
          "type": "uint256"
        },
        {
          "name": "_designation",
          "type": "uint256"
        },
        {
          "name": "_email",
          "type": "string"
        },
        {
          "name": "_hash",
          "type": "string"
        }
      ],
      "name": "register",
      "outputs": [],
      "payable": false,
      "stateMutability": "nonpayable",
      "type": "function",
      "signature": "0xeeec248a"
    },
    {
      "constant": true,
      "inputs": [
        {
          "name": "_addr",
          "type": "address"
        }
      ],
      "name": "login",
      "outputs": [
        {
          "name": "",
          "type": "uint256"
        }
      ],
      "payable": false,
      "stateMutability": "view",
      "type": "function",
      "signature": "0x35a6861a"
    }
  ],
  "bytecode": "0x608060405234801561001057600080fd5b506040805180820190915260098082527f6d656469636861696e000000000000000000000000000000000000000000000060209092019182526100559160009161005b565b506100f6565b828054600181600116156101000203166002900490600052602060002090601f016020900481019282601f1061009c57805160ff19168380011785556100c9565b828001600101855582156100c9579182015b828111156100c95782518255916020019190600101906100ae565b506100d59291506100d9565b5090565b6100f391905b808211156100d557600081556001016100df565b90565b610ddd806101056000396000f3fe60806040526004361061008d5763ffffffff7c010000000000000000000000000000000000000000000000000000000060003504166306fdde038114610092578063127ca4b41461011c5780631bf040731461016257806335a6861a1461027e5780635073d346146102c35780636142d2dc146102f6578063babb1d411461047f578063eeec248a146104a9575b600080fd5b34801561009e57600080fd5b506100a7610678565b6040805160208082528351818301528351919283929083019185019080838360005b838110156100e15781810151838201526020016100c9565b50505050905090810190601f16801561010e5780820380516001836020036101000a031916815260200191505b509250505060405180910390f35b34801561012857600080fd5b506101466004803603602081101561013f57600080fd5b5035610706565b60408051600160a060020a039092168252519081900360200190f35b34801561016e57600080fd5b506101956004803603602081101561018557600080fd5b5035600160a060020a031661072e565b60405180806020018060200184151515158152602001838103835286818151815260200191508051906020019080838360005b838110156101e05781810151838201526020016101c8565b50505050905090810190601f16801561020d5780820380516001836020036101000a031916815260200191505b50838103825285518152855160209182019187019080838360005b83811015610240578181015183820152602001610228565b50505050905090810190601f16801561026d5780820380516001836020036101000a031916815260200191505b509550505050505060405180910390f35b34801561028a57600080fd5b506102b1600480360360208110156102a157600080fd5b5035600160a060020a0316610876565b60408051918252519081900360200190f35b3480156102cf57600080fd5b506102b1600480360360208110156102e657600080fd5b5035600160a060020a03166108d7565b34801561030257600080fd5b506103296004803603602081101561031957600080fd5b5035600160a060020a03166108e9565b6040518080602001806020018681526020018060200185151515158152602001848103845289818151815260200191508051906020019080838360005b8381101561037e578181015183820152602001610366565b50505050905090810190601f1680156103ab5780820380516001836020036101000a031916815260200191505b5084810383528851815288516020918201918a019080838360005b838110156103de5781810151838201526020016103c6565b50505050905090810190601f16801561040b5780820380516001836020036101000a031916815260200191505b50848103825286518152865160209182019188019080838360005b8381101561043e578181015183820152602001610426565b50505050905090810190601f16801561046b5780820380516001836020036101000a031916815260200191505b509850505050505050505060405180910390f35b34801561048b57600080fd5b50610146600480360360208110156104a257600080fd5b5035610ac9565b3480156104b557600080fd5b50610676600480360360a08110156104cc57600080fd5b8101906020810181356401000000008111156104e757600080fd5b8201836020820111156104f957600080fd5b8035906020019184600183028401116401000000008311171561051b57600080fd5b91908080601f016020809104026020016040519081016040528093929190818152602001838380828437600092019190915250929584359560208601359591945092506060810191506040013564010000000081111561057a57600080fd5b82018360208201111561058c57600080fd5b803590602001918460018302840111640100000000831117156105ae57600080fd5b91908080601f016020809104026020016040519081016040528093929190818152602001838380828437600092019190915250929594936020810193503591505064010000000081111561060157600080fd5b82018360208201111561061357600080fd5b8035906020019184600183028401116401000000008311171561063557600080fd5b91908080601f016020809104026020016040519081016040528093929190818152602001838380828437600092019190915250929550610ad7945050505050565b005b6000805460408051602060026001851615610100026000190190941693909304601f810184900484028201840190925281815292918301828280156106fe5780601f106106d3576101008083540402835291602001916106fe565b820191906000526020600020905b8154815290600101906020018083116106e157829003601f168201915b505050505081565b600280548290811061071457fe5b600091825260209091200154600160a060020a0316905081565b60046020908152600091825260409182902080548351601f600260001961010060018616150201909316929092049182018490048402810184019094528084529092918391908301828280156107c55780601f1061079a576101008083540402835291602001916107c5565b820191906000526020600020905b8154815290600101906020018083116107a857829003601f168201915b505050505090806001018054600181600116156101000203166002900480601f0160208091040260200160405190810160405280929190818152602001828054600181600116156101000203166002900480156108635780601f1061083857610100808354040283529160200191610863565b820191906000526020600020905b81548152906001019060200180831161084657829003601f168201915b5050506002909301549192505060ff1683565b600160a060020a03811660009081526003602052604081206004015460ff16156108a2575060016108d2565b600160a060020a03821660009081526004602052604090206002015460ff16156108ce575060026108d2565b5060005b919050565b60056020526000908152604090205481565b60036020908152600091825260409182902080548351601f600260001961010060018616150201909316929092049182018490048402810184019094528084529092918391908301828280156109805780601f1061095557610100808354040283529160200191610980565b820191906000526020600020905b81548152906001019060200180831161096357829003601f168201915b505050505090806001018054600181600116156101000203166002900480601f016020809104026020016040519081016040528092919081815260200182805460018160011615610100020316600290048015610a1e5780601f106109f357610100808354040283529160200191610a1e565b820191906000526020600020905b815481529060010190602001808311610a0157829003601f168201915b505050506002838101546003850180546040805160206001841615610100026000190190931695909504601f810183900483028601830190915280855295969295929450909190830182828015610ab65780601f10610a8b57610100808354040283529160200191610ab6565b820191906000526020600020905b815481529060010190602001808311610a9957829003601f168201915b5050506004909301549192505060ff1685565b600180548290811061071457fe5b331515610ae357600080fd5b8451600010610af157600080fd5b8151600010610aff57600080fd5b3360008181526003602052604090206004015460ff1615610b1f57600080fd5b600160a060020a03811660009081526004602052604090206002015460ff1615610b4857600080fd5b8360011415610c485760008511610b5e57600080fd5b8151600010610b6c57600080fd5b600160a060020a038116600090815260036020908152604090912087519091610b999183918a0190610d16565b508351610baf9060018301906020870190610d16565b50600281018690558251610bcc9060038301906020860190610d16565b50600401805460ff1916600190811790915580548082019091557fb10e2d527612073b26eecdfd717e6a320cf44b4afac2b0732d9fcbe2b7fa0cf6018054600160a060020a03831673ffffffffffffffffffffffffffffffffffffffff1990911681179091556000908152600560205260409020849055610d0e565b836002141561008d57600160a060020a038116600090815260046020908152604090912087519091610c7e9183918a0190610d16565b508351610c949060018301906020870190610d16565b506002908101805460ff1916600190811790915581549081019091557f405787fa12a823e0f2b7631cc41b3ba8828b3321ca811111fa75cd3aa3bb5ace018054600160a060020a03831673ffffffffffffffffffffffffffffffffffffffff19909116811790915560009081526005602052604090208490555b505050505050565b828054600181600116156101000203166002900490600052602060002090601f016020900481019282601f10610d5757805160ff1916838001178555610d84565b82800160010185558215610d84579182015b82811115610d84578251825591602001919060010190610d69565b50610d90929150610d94565b5090565b610dae91905b80821115610d905760008155600101610d9a565b9056fea165627a7a72305820698546f45bbc7c0ef4bea29c294942b2b466b0a9b355ffbde9932c044fe0bbbe0029",
  "source": "// SPDX-License-Identifier: MIT\npragma solidity >=0.4.22 <0.9.0;\n\ncontract MediChain {\n    string public name;\n\n    address[] public patientList;\n    address[] public doctorList;\n\n    mapping(address => Patient) public patientInfo;\n    mapping(address => Doctor) public doctorInfo;\n    mapping(address => uint) public designationInfo;\n\n    struct Patient {\n        string name;\n        string email;\n        uint age;\n        string record;\n        bool exists;\n    }\n\n    struct Doctor{\n        string name;\n        string email;\n        bool exists;\n    }\n\n    constructor() public {\n        name = \"medichain\";\n    }\n\n    function register(string memory _name, uint _age, uint _designation, string memory _email, string memory _hash) public {\n        require(msg.sender != address(0));\n        require(bytes(_name).length > 0);\n        require(bytes(_email).length > 0);\n\n        address _addr = msg.sender;\n        \n        require(!patientInfo[_addr].exists);\n        require(!doctorInfo[_addr].exists);\n\n        if(_designation == 1){\n            require(_age > 0);\n            require(bytes(_hash).length > 0);\n            Patient storage pinfo = patientInfo[_addr];\n            pinfo.name = _name;\n            pinfo.email = _email;\n            pinfo.age = _age;\n            pinfo.record = _hash;\n            pinfo.exists = true;\n            patientList.push(_addr);\n            designationInfo[_addr] = _designation;\n        } else if(_designation == 2){\n            Doctor storage dinfo = doctorInfo[_addr];\n            dinfo.name = _name;\n            dinfo.email = _email;\n            dinfo.exists = true;\n            doctorList.push(_addr);\n            designationInfo[_addr] = _designation;\n        } else {\n            revert();\n        }\n    }\n\n    function login(address _addr) public view returns(uint){\n        if(patientInfo[_addr].exists){\n            return 1;\n        } else if(doctorInfo[_addr].exists){\n            return 2;\n        } else{\n            return 0;\n        }\n    }\n\n    /*\n    function getPatientData(address _addr) public view returns(Patient memory){\n        return patientInfo[_addr];\n    }\n\n    function getDoctorData(address _addr) public view returns(Doctor memory){\n        return doctorInfo[_addr];\n    }\n    */\n\n}",
  "sourcePath": "D:/CODE/Capstone/truffle/contracts/MediChain.sol",
  "compiler": {
    "name": "solc",
    "version": "0.5.0+commit.1d4f565a.Emscripten.clang"
  },
  "schemaVersion": "3.0.1",
  "updatedAt": "2024-01-31T17:55:09.814Z",
  "devdoc": {
    "methods": {}
  },
  "userdoc": {
    "methods": {}
  }
}