{
  "contractName": "MediChain",
  "abi": [
    {
      "constant": true,
      "inputs": [],
      "name": "name",
      "outputs": [
        {
          "name": "",
          "type": "string"
        }
      ],
      "payable": false,
      "stateMutability": "view",
      "type": "function",
      "signature": "0x06fdde03"
    },
    {
      "constant": true,
      "inputs": [
        {
          "name": "",
          "type": "uint256"
        }
      ],
      "name": "doctorList",
      "outputs": [
        {
          "name": "",
          "type": "address"
        }
      ],
      "payable": false,
      "stateMutability": "view",
      "type": "function",
      "signature": "0x127ca4b4"
    },
    {
      "constant": true,
      "inputs": [
        {
          "name": "",
          "type": "address"
        }
      ],
      "name": "doctorInfo",
      "outputs": [
        {
          "name": "name",
          "type": "string"
        },
        {
          "name": "exists",
          "type": "bool"
        }
      ],
      "payable": false,
      "stateMutability": "view",
      "type": "function",
      "signature": "0x1bf04073"
    },
    {
      "constant": true,
      "inputs": [
        {
          "name": "",
          "type": "address"
        }
      ],
      "name": "designationInfo",
      "outputs": [
        {
          "name": "",
          "type": "uint256"
        }
      ],
      "payable": false,
      "stateMutability": "view",
      "type": "function",
      "signature": "0x5073d346"
    },
    {
      "constant": true,
      "inputs": [
        {
          "name": "",
          "type": "address"
        }
      ],
      "name": "patientInfo",
      "outputs": [
        {
          "name": "name",
          "type": "string"
        },
        {
          "name": "age",
          "type": "uint256"
        },
        {
          "name": "cid",
          "type": "string"
        },
        {
          "name": "exists",
          "type": "bool"
        }
      ],
      "payable": false,
      "stateMutability": "view",
      "type": "function",
      "signature": "0x6142d2dc"
    },
    {
      "constant": true,
      "inputs": [
        {
          "name": "",
          "type": "uint256"
        }
      ],
      "name": "patientList",
      "outputs": [
        {
          "name": "",
          "type": "address"
        }
      ],
      "payable": false,
      "stateMutability": "view",
      "type": "function",
      "signature": "0xbabb1d41"
    },
    {
      "inputs": [],
      "payable": false,
      "stateMutability": "nonpayable",
      "type": "constructor",
      "signature": "constructor"
    },
    {
      "constant": false,
      "inputs": [
        {
          "name": "_name",
          "type": "string"
        },
        {
          "name": "_age",
          "type": "uint256"
        },
        {
          "name": "_designation",
          "type": "uint256"
        },
        {
          "name": "_cid",
          "type": "string"
        }
      ],
      "name": "register",
      "outputs": [],
      "payable": false,
      "stateMutability": "nonpayable",
      "type": "function",
      "signature": "0x1bc44009"
    },
    {
      "constant": true,
      "inputs": [
        {
          "name": "_addr",
          "type": "address"
        }
      ],
      "name": "login",
      "outputs": [
        {
          "name": "",
          "type": "uint256"
        }
      ],
      "payable": false,
      "stateMutability": "view",
      "type": "function",
      "signature": "0x35a6861a"
    }
  ],
  "bytecode": "0x608060405234801561001057600080fd5b506040805180820190915260098082527f6d656469636861696e000000000000000000000000000000000000000000000060209092019182526100559160009161005b565b506100f6565b828054600181600116156101000203166002900490600052602060002090601f016020900481019282601f1061009c57805160ff19168380011785556100c9565b828001600101855582156100c9579182015b828111156100c95782518255916020019190600101906100ae565b506100d59291506100d9565b5090565b6100f391905b808211156100d557600081556001016100df565b90565b610b1c806101056000396000f3fe60806040526004361061008d5763ffffffff7c010000000000000000000000000000000000000000000000000000000060003504166306fdde038114610092578063127ca4b41461011c5780631bc44009146101625780631bf04073146102aa57806335a6861a146103605780635073d346146103a55780636142d2dc146103d8578063babb1d41146104fb575b600080fd5b34801561009e57600080fd5b506100a7610525565b6040805160208082528351818301528351919283929083019185019080838360005b838110156100e15781810151838201526020016100c9565b50505050905090810190601f16801561010e5780820380516001836020036101000a031916815260200191505b509250505060405180910390f35b34801561012857600080fd5b506101466004803603602081101561013f57600080fd5b50356105b3565b60408051600160a060020a039092168252519081900360200190f35b34801561016e57600080fd5b506102a86004803603608081101561018557600080fd5b8101906020810181356401000000008111156101a057600080fd5b8201836020820111156101b257600080fd5b803590602001918460018302840111640100000000831117156101d457600080fd5b91908080601f016020809104026020016040519081016040528093929190818152602001838380828437600092019190915250929584359560208601359591945092506060810191506040013564010000000081111561023357600080fd5b82018360208201111561024557600080fd5b8035906020019184600183028401116401000000008311171561026757600080fd5b91908080601f0160208091040260200160405190810160405280939291908181526020018383808284376000920191909152509295506105db945050505050565b005b3480156102b657600080fd5b506102dd600480360360208110156102cd57600080fd5b5035600160a060020a03166107dc565b604051808060200183151515158152602001828103825284818151815260200191508051906020019080838360005b8381101561032457818101518382015260200161030c565b50505050905090810190601f1680156103515780820380516001836020036101000a031916815260200191505b50935050505060405180910390f35b34801561036c57600080fd5b506103936004803603602081101561038357600080fd5b5035600160a060020a0316610886565b60408051918252519081900360200190f35b3480156103b157600080fd5b50610393600480360360208110156103c857600080fd5b5035600160a060020a03166108e7565b3480156103e457600080fd5b5061040b600480360360208110156103fb57600080fd5b5035600160a060020a03166108f9565b60405180806020018581526020018060200184151515158152602001838103835287818151815260200191508051906020019080838360005b8381101561045c578181015183820152602001610444565b50505050905090810190601f1680156104895780820380516001836020036101000a031916815260200191505b50838103825285518152855160209182019187019080838360005b838110156104bc5781810151838201526020016104a4565b50505050905090810190601f1680156104e95780820380516001836020036101000a031916815260200191505b50965050505050505060405180910390f35b34801561050757600080fd5b506101466004803603602081101561051e57600080fd5b5035610a47565b6000805460408051602060026001851615610100026000190190941693909304601f810184900484028201840190925281815292918301828280156105ab5780601f10610580576101008083540402835291602001916105ab565b820191906000526020600020905b81548152906001019060200180831161058e57829003601f168201915b505050505081565b60028054829081106105c157fe5b600091825260209091200154600160a060020a0316905081565b3315156105e757600080fd5b83516000106105f557600080fd5b336000818152600360208190526040909120015460ff161561061657600080fd5b600160a060020a03811660009081526004602052604090206001015460ff161561063f57600080fd5b8260011415610729576000841161065557600080fd5b815160001061066357600080fd5b600160a060020a038116600090815260036020908152604090912086519091610690918391890190610a55565b506001810185905582516106ad9060028301906020860190610a55565b50600301805460ff1916600190811790915580548082019091557fb10e2d527612073b26eecdfd717e6a320cf44b4afac2b0732d9fcbe2b7fa0cf6018054600160a060020a03831673ffffffffffffffffffffffffffffffffffffffff19909116811790915560009081526005602052604090208390556107d5565b826002141561008d57600160a060020a03811660009081526004602090815260409091208651909161075f918391890190610a55565b506001908101805460ff1916821790556002805491820190557f405787fa12a823e0f2b7631cc41b3ba8828b3321ca811111fa75cd3aa3bb5ace01805473ffffffffffffffffffffffffffffffffffffffff1916600160a060020a03831690811790915560009081526005602052604090208390555b5050505050565b60046020908152600091825260409182902080548351601f600260001961010060018616150201909316929092049182018490048402810184019094528084529092918391908301828280156108735780601f1061084857610100808354040283529160200191610873565b820191906000526020600020905b81548152906001019060200180831161085657829003601f168201915b5050506001909301549192505060ff1682565b600160a060020a03811660009081526003602081905260408220015460ff16156108b2575060016108e2565b600160a060020a03821660009081526004602052604090206001015460ff16156108de575060026108e2565b5060005b919050565b60056020526000908152604090205481565b60036020908152600091825260409182902080548351601f600260001961010060018616150201909316929092049182018490048402810184019094528084529092918391908301828280156109905780601f1061096557610100808354040283529160200191610990565b820191906000526020600020905b81548152906001019060200180831161097357829003601f168201915b505050505090806001015490806002018054600181600116156101000203166002900480601f016020809104026020016040519081016040528092919081815260200182805460018160011615610100020316600290048015610a345780601f10610a0957610100808354040283529160200191610a34565b820191906000526020600020905b815481529060010190602001808311610a1757829003601f168201915b5050506003909301549192505060ff1684565b60018054829081106105c157fe5b828054600181600116156101000203166002900490600052602060002090601f016020900481019282601f10610a9657805160ff1916838001178555610ac3565b82800160010185558215610ac3579182015b82811115610ac3578251825591602001919060010190610aa8565b50610acf929150610ad3565b5090565b610aed91905b80821115610acf5760008155600101610ad9565b9056fea165627a7a7230582003e2b17f9701118fbfdc699731a3155df45388106b102c41feb56f9a31f6e9480029",
  "source": "// SPDX-License-Identifier: MIT\npragma solidity >=0.4.22 <0.9.0;\n\ncontract MediChain {\n    string public name;\n\n    address[] public patientList;\n    address[] public doctorList;\n\n    mapping(address => Patient) public patientInfo;\n    mapping(address => Doctor) public doctorInfo;\n    mapping(address => uint) public designationInfo;\n\n    struct Patient {\n        string name;\n        uint age;\n        string cid;\n        bool exists;\n    }\n\n    struct Doctor{\n        string name;\n        bool exists;\n    }\n\n    constructor() public {\n        name = \"medichain\";\n    }\n\n    function register(string memory _name, uint _age, uint _designation, string memory _cid) public {\n        require(msg.sender != address(0));\n        require(bytes(_name).length > 0);\n\n        address _addr = msg.sender;\n        \n        require(!patientInfo[_addr].exists);\n        require(!doctorInfo[_addr].exists);\n\n        if(_designation == 1){\n            require(_age > 0);\n            require(bytes(_cid).length > 0);\n            Patient storage pinfo = patientInfo[_addr];\n            pinfo.name = _name;\n            pinfo.age = _age;\n            pinfo.cid = _cid;\n            pinfo.exists = true;\n            patientList.push(_addr);\n            designationInfo[_addr] = _designation;\n        } else if(_designation == 2){\n            Doctor storage dinfo = doctorInfo[_addr];\n            dinfo.name = _name;\n            dinfo.exists = true;\n            doctorList.push(_addr);\n            designationInfo[_addr] = _designation;\n        } else {\n            revert();\n        }\n    }\n\n    function login(address _addr) public view returns(uint){\n        if(patientInfo[_addr].exists){\n            return 1;\n        } else if(doctorInfo[_addr].exists){\n            return 2;\n        } else{\n            return 0;\n        }\n    }\n}",
  "sourcePath": "D:/CODE/Capstone/truffle/contracts/MediChain.sol",
  "compiler": {
    "name": "solc",
    "version": "0.5.0+commit.1d4f565a.Emscripten.clang"
  },
  "schemaVersion": "3.0.1",
  "updatedAt": "2024-02-01T06:12:12.051Z",
  "devdoc": {
    "methods": {}
  },
  "userdoc": {
    "methods": {}
  }
}