{
  "contractName": "MediChain",
  "abi": [
    {
      "constant": true,
      "inputs": [],
      "name": "name",
      "outputs": [
        {
          "name": "",
          "type": "string"
        }
      ],
      "payable": false,
      "stateMutability": "view",
      "type": "function",
      "signature": "0x06fdde03"
    },
    {
      "constant": true,
      "inputs": [
        {
          "name": "",
          "type": "address"
        }
      ],
      "name": "patientInfo",
      "outputs": [
        {
          "name": "",
          "type": "string"
        }
      ],
      "payable": false,
      "stateMutability": "view",
      "type": "function",
      "signature": "0x6142d2dc"
    },
    {
      "inputs": [],
      "payable": false,
      "stateMutability": "nonpayable",
      "type": "constructor",
      "signature": "constructor"
    },
    {
      "constant": false,
      "inputs": [
        {
          "name": "_cid",
          "type": "string"
        }
      ],
      "name": "pushData",
      "outputs": [],
      "payable": false,
      "stateMutability": "nonpayable",
      "type": "function",
      "signature": "0x06b1efe5"
    },
    {
      "constant": true,
      "inputs": [
        {
          "name": "_paddress",
          "type": "address"
        }
      ],
      "name": "getPatientInfo",
      "outputs": [
        {
          "name": "",
          "type": "string"
        }
      ],
      "payable": false,
      "stateMutability": "view",
      "type": "function",
      "signature": "0x4b426178"
    }
  ],
  "bytecode": "0x608060405234801561001057600080fd5b506040805180820190915260098082527f6d656469636861696e000000000000000000000000000000000000000000000060209092019182526100559160009161005b565b506100f6565b828054600181600116156101000203166002900490600052602060002090601f016020900481019282601f1061009c57805160ff19168380011785556100c9565b828001600101855582156100c9579182015b828111156100c95782518255916020019190600101906100ae565b506100d59291506100d9565b5090565b6100f391905b808211156100d557600081556001016100df565b90565b6104d7806101056000396000f3fe6080604052600436106100615763ffffffff7c010000000000000000000000000000000000000000000000000000000060003504166306b1efe5811461006657806306fdde031461011b5780634b426178146101a55780636142d2dc146101e5575b600080fd5b34801561007257600080fd5b506101196004803603602081101561008957600080fd5b8101906020810181356401000000008111156100a457600080fd5b8201836020820111156100b657600080fd5b803590602001918460018302840111640100000000831117156100d857600080fd5b91908080601f016020809104026020016040519081016040528093929190818152602001838380828437600092019190915250929550610225945050505050565b005b34801561012757600080fd5b50610130610264565b6040805160208082528351818301528351919283929083019185019080838360005b8381101561016a578181015183820152602001610152565b50505050905090810190601f1680156101975780820380516001836020036101000a031916815260200191505b509250505060405180910390f35b3480156101b157600080fd5b50610130600480360360208110156101c857600080fd5b503573ffffffffffffffffffffffffffffffffffffffff166102f2565b3480156101f157600080fd5b506101306004803603602081101561020857600080fd5b503573ffffffffffffffffffffffffffffffffffffffff166103a9565b33151561023157600080fd5b805160001061023f57600080fd5b336000818152600160209081526040909120835161025f92850190610410565b505050565b6000805460408051602060026001851615610100026000190190941693909304601f810184900484028201840190925281815292918301828280156102ea5780601f106102bf576101008083540402835291602001916102ea565b820191906000526020600020905b8154815290600101906020018083116102cd57829003601f168201915b505050505081565b73ffffffffffffffffffffffffffffffffffffffff811660009081526001602081815260409283902080548451600294821615610100026000190190911693909304601f8101839004830284018301909452838352606093909183018282801561039d5780601f106103725761010080835404028352916020019161039d565b820191906000526020600020905b81548152906001019060200180831161038057829003601f168201915b50505050509050919050565b60016020818152600092835260409283902080548451600294821615610100026000190190911693909304601f81018390048302840183019094528383529192908301828280156102ea5780601f106102bf576101008083540402835291602001916102ea565b828054600181600116156101000203166002900490600052602060002090601f016020900481019282601f1061045157805160ff191683800117855561047e565b8280016001018555821561047e579182015b8281111561047e578251825591602001919060010190610463565b5061048a92915061048e565b5090565b6104a891905b8082111561048a5760008155600101610494565b9056fea165627a7a72305820d6eda7ec94f512549928df44bd0bee4c70f71c5f0e78d1e6b0f0964ed9202d700029",
  "source": "// SPDX-License-Identifier: MIT\npragma solidity >=0.4.22 <0.9.0;\n\ncontract MediChain {\n    string public name;\n\n    mapping(address => string) public patientInfo;\n\n\n    constructor() public {\n        name = \"medichain\";\n    }\n\n    function pushData(string memory _cid) public {\n        require(msg.sender != address(0));\n        require(bytes(_cid).length > 0);\n\n        address _addr = msg.sender;\n\n        patientInfo[_addr] = _cid;\n    }\n\n    function getPatientInfo(address _paddress) public view returns (string memory) {\n    \n        return patientInfo[_paddress];\n    }\n}",
  "sourcePath": "D:/CODE/Capstone/truffle/contracts/MediChain.sol",
  "compiler": {
    "name": "solc",
    "version": "0.5.0+commit.1d4f565a.Emscripten.clang"
  },
  "schemaVersion": "3.0.1",
  "updatedAt": "2024-02-07T11:22:53.176Z",
  "devdoc": {
    "methods": {}
  },
  "userdoc": {
    "methods": {}
  }
}