{
  "contractName": "Migrations",
  "abi": [
    {
      "constant": true,
      "inputs": [],
      "name": "last_completed_migration",
      "outputs": [
        {
          "name": "",
          "type": "uint256"
        }
      ],
      "payable": false,
      "stateMutability": "view",
      "type": "function"
    },
    {
      "constant": true,
      "inputs": [],
      "name": "owner",
      "outputs": [
        {
          "name": "",
          "type": "address"
        }
      ],
      "payable": false,
      "stateMutability": "view",
      "type": "function"
    }
  ],
  "bytecode": "0x608060405260008054600160a060020a0319163317905534801561002257600080fd5b5060fa806100316000396000f3fe60806040526004361060485763ffffffff7c0100000000000000000000000000000000000000000000000000000000600035041663445df0ac8114604d5780638da5cb5b146071575b600080fd5b348015605857600080fd5b50605f60ac565b60408051918252519081900360200190f35b348015607c57600080fd5b50608360b2565b6040805173ffffffffffffffffffffffffffffffffffffffff9092168252519081900360200190f35b60015481565b60005473ffffffffffffffffffffffffffffffffffffffff168156fea165627a7a723058200e2b620c5faea6b3397c23bdb7ae85e43991cec720d5e49db9cb7cda9fa65df70029",
  "source": "// SPDX-License-Identifier: MIT\r\npragma solidity >=0.4.22 <0.9.0;\r\n\r\ncontract Migrations {\r\n  address public owner = msg.sender;\r\n  uint public last_completed_migration;\r\n\r\n  modifier restricted() {\r\n    require(\r\n      msg.sender == owner,\r\n      \"This function is restricted to the contract's owner\"\r\n    );\r\n    _;\r\n  }\r\n}\r\n",
  "sourcePath": "D:/CODE/Capstone/truffle/contracts/Migrations.sol",
  "compiler": {
    "name": "solc",
    "version": "0.5.0+commit.1d4f565a.Emscripten.clang"
  },
  "schemaVersion": "3.0.1",
  "updatedAt": "2024-01-31T17:55:09.808Z",
  "devdoc": {
    "methods": {}
  },
  "userdoc": {
    "methods": {}
  }
}